{"abi":[{"inputs":[{"internalType":"uint256","name":"minimum","type":"uint256"},{"internalType":"address","name":"creator","type":"address"}],"stateMutability":"nonpayable","type":"constructor"},{"inputs":[{"internalType":"uint256","name":"index","type":"uint256"}],"name":"approveRequest","outputs":[],"stateMutability":"nonpayable","type":"function"},{"inputs":[{"internalType":"address","name":"","type":"address"}],"name":"approvers","outputs":[{"internalType":"bool","name":"","type":"bool"}],"stateMutability":"view","type":"function"},{"inputs":[],"name":"approversCount","outputs":[{"internalType":"uint256","name":"","type":"uint256"}],"stateMutability":"view","type":"function"},{"inputs":[],"name":"contribute","outputs":[],"stateMutability":"payable","type":"function"},{"inputs":[{"internalType":"string","name":"description","type":"string"},{"internalType":"uint256","name":"value","type":"uint256"},{"internalType":"address","name":"recipient","type":"address"}],"name":"createRequest","outputs":[],"stateMutability":"nonpayable","type":"function"},{"inputs":[{"internalType":"uint256","name":"index","type":"uint256"}],"name":"finalizeRequest","outputs":[],"stateMutability":"nonpayable","type":"function"},{"inputs":[],"name":"getSummary","outputs":[{"internalType":"uint256","name":"","type":"uint256"},{"internalType":"uint256","name":"","type":"uint256"},{"internalType":"uint256","name":"","type":"uint256"},{"internalType":"uint256","name":"","type":"uint256"},{"internalType":"address","name":"","type":"address"}],"stateMutability":"view","type":"function"},{"inputs":[],"name":"manager","outputs":[{"internalType":"address","name":"","type":"address"}],"stateMutability":"view","type":"function"},{"inputs":[],"name":"minimumContribution","outputs":[{"internalType":"uint256","name":"","type":"uint256"}],"stateMutability":"view","type":"function"},{"inputs":[],"name":"numRequests","outputs":[{"internalType":"uint256","name":"","type":"uint256"}],"stateMutability":"view","type":"function"},{"inputs":[{"internalType":"uint256","name":"","type":"uint256"}],"name":"requests","outputs":[{"internalType":"string","name":"description","type":"string"},{"internalType":"uint256","name":"value","type":"uint256"},{"internalType":"address","name":"recipient","type":"address"},{"internalType":"bool","name":"complete","type":"bool"},{"internalType":"uint256","name":"approvalCount","type":"uint256"}],"stateMutability":"view","type":"function"}],"devdoc":{"kind":"dev","methods":{},"version":1},"evm":{"assembly":"    /* \"Campaign.sol\":424:2513  contract Campaign {... */\n  mstore(0x40, 0x80)\n    /* \"Campaign.sol\":952:1068  constructor(uint minimum, address creator) {... */\n  callvalue\n  dup1\n  iszero\n  tag_1\n  jumpi\n  0x00\n  dup1\n  revert\ntag_1:\n  pop\n  mload(0x40)\n  sub(codesize, bytecodeSize)\n  dup1\n  bytecodeSize\n  dup4\n  codecopy\n  dup2\n  add\n  0x40\n  dup2\n  swap1\n  mstore\n  tag_2\n  swap2\n  tag_3\n  jump\t// in\ntag_2:\n    /* \"Campaign.sol\":1005:1012  manager */\n  0x00\n    /* \"Campaign.sol\":1005:1022  manager = creator */\n  dup1\n  sload\n  not(sub(shl(0xa0, 0x01), 0x01))\n  and\n  sub(shl(0xa0, 0x01), 0x01)\n  swap3\n  swap1\n  swap3\n  and\n  swap2\n  swap1\n  swap2\n  or\n  swap1\n  sstore\n  0x01\n    /* \"Campaign.sol\":1032:1061  minimumContribution = minimum */\n  sstore\n    /* \"Campaign.sol\":424:2513  contract Campaign {... */\n  jump(tag_7)\n    /* \"#utility.yul\":14:365   */\ntag_3:\n    /* \"#utility.yul\":93:99   */\n  0x00\n    /* \"#utility.yul\":101:107   */\n  dup1\n    /* \"#utility.yul\":154:156   */\n  0x40\n    /* \"#utility.yul\":142:151   */\n  dup4\n    /* \"#utility.yul\":133:140   */\n  dup6\n    /* \"#utility.yul\":129:152   */\n  sub\n    /* \"#utility.yul\":125:157   */\n  slt\n    /* \"#utility.yul\":122:174   */\n  iszero\n  tag_9\n  jumpi\n    /* \"#utility.yul\":170:171   */\n  0x00\n    /* \"#utility.yul\":167:168   */\n  dup1\n    /* \"#utility.yul\":160:172   */\n  revert\n    /* \"#utility.yul\":122:174   */\ntag_9:\n    /* \"#utility.yul\":193:209   */\n  dup3\n  mload\n    /* \"#utility.yul\":252:254   */\n  0x20\n    /* \"#utility.yul\":237:255   */\n  dup5\n  add\n    /* \"#utility.yul\":231:256   */\n  mload\n    /* \"#utility.yul\":193:209   */\n  swap1\n  swap3\n  pop\n  sub(shl(0xa0, 0x01), 0x01)\n    /* \"#utility.yul\":285:316   */\n  dup2\n  and\n    /* \"#utility.yul\":275:317   */\n  dup2\n  eq\n    /* \"#utility.yul\":265:335   */\n  tag_10\n  jumpi\n    /* \"#utility.yul\":331:332   */\n  0x00\n    /* \"#utility.yul\":328:329   */\n  dup1\n    /* \"#utility.yul\":321:333   */\n  revert\n    /* \"#utility.yul\":265:335   */\ntag_10:\n    /* \"#utility.yul\":354:359   */\n  dup1\n    /* \"#utility.yul\":344:359   */\n  swap2\n  pop\n  pop\n    /* \"#utility.yul\":14:365   */\n  swap3\n  pop\n  swap3\n  swap1\n  pop\n  jump\t// out\ntag_7:\n    /* \"Campaign.sol\":424:2513  contract Campaign {... */\n  dataSize(sub_0)\n  dup1\n  dataOffset(sub_0)\n  0x00\n  codecopy\n  0x00\n  return\nstop\n\nsub_0: assembly {\n        /* \"Campaign.sol\":424:2513  contract Campaign {... */\n      mstore(0x40, 0x80)\n      jumpi(tag_1, lt(calldatasize, 0x04))\n      shr(0xe0, calldataload(0x00))\n      dup1\n      0x82fde093\n      gt\n      tag_13\n      jumpi\n      dup1\n      0x82fde093\n      eq\n      tag_7\n      jumpi\n      dup1\n      0x8a9cfd55\n      eq\n      tag_8\n      jumpi\n      dup1\n      0x937e09b1\n      eq\n      tag_9\n      jumpi\n      dup1\n      0x9fb42b1f\n      eq\n      tag_10\n      jumpi\n      dup1\n      0xd7bb99ba\n      eq\n      tag_11\n      jumpi\n      dup1\n      0xd7d1bbdb\n      eq\n      tag_12\n      jumpi\n      0x00\n      dup1\n      revert\n    tag_13:\n      dup1\n      0x03441006\n      eq\n      tag_2\n      jumpi\n      dup1\n      0x0a144391\n      eq\n      tag_3\n      jumpi\n      dup1\n      0x4051ddac\n      eq\n      tag_4\n      jumpi\n      dup1\n      0x481c6a75\n      eq\n      tag_5\n      jumpi\n      dup1\n      0x81d12c58\n      eq\n      tag_6\n      jumpi\n    tag_1:\n      0x00\n      dup1\n      revert\n        /* \"Campaign.sol\":1944:2251  function finalizeRequest(uint index) public restricted {... */\n    tag_2:\n      callvalue\n      dup1\n      iszero\n      tag_14\n      jumpi\n      0x00\n      dup1\n      revert\n    tag_14:\n      pop\n      tag_15\n      tag_16\n      calldatasize\n      0x04\n      tag_17\n      jump\t// in\n    tag_16:\n      tag_18\n      jump\t// in\n    tag_15:\n      stop\n        /* \"Campaign.sol\":711:752  mapping(address => bool) public approvers */\n    tag_3:\n      callvalue\n      dup1\n      iszero\n      tag_19\n      jumpi\n      0x00\n      dup1\n      revert\n    tag_19:\n      pop\n      tag_20\n      tag_21\n      calldatasize\n      0x04\n      tag_22\n      jump\t// in\n    tag_21:\n      mstore(0x20, 0x02)\n      0x00\n      swap1\n      dup2\n      mstore\n      0x40\n      swap1\n      keccak256\n      sload\n      0xff\n      and\n      dup2\n      jump\n    tag_20:\n      mload(0x40)\n        /* \"#utility.yul\":829:843   */\n      swap1\n      iszero\n        /* \"#utility.yul\":822:844   */\n      iszero\n        /* \"#utility.yul\":804:845   */\n      dup2\n      mstore\n        /* \"#utility.yul\":792:794   */\n      0x20\n        /* \"#utility.yul\":777:795   */\n      add\n        /* \"Campaign.sol\":711:752  mapping(address => bool) public approvers */\n    tag_24:\n      mload(0x40)\n      dup1\n      swap2\n      sub\n      swap1\n      return\n        /* \"Campaign.sol\":2257:2511  function getSummary() public view returns(... */\n    tag_4:\n      callvalue\n      dup1\n      iszero\n      tag_26\n      jumpi\n      0x00\n      dup1\n      revert\n    tag_26:\n      pop\n        /* \"Campaign.sol\":2372:2391  minimumContribution */\n      sload(0x01)\n        /* \"Campaign.sol\":2436:2447  numRequests */\n      sload(0x04)\n        /* \"Campaign.sol\":2459:2473  approversCount */\n      sload(0x03)\n        /* \"Campaign.sol\":2308:2312  uint */\n      0x00\n        /* \"Campaign.sol\":2485:2492  manager */\n      sload\n        /* \"Campaign.sol\":2257:2511  function getSummary() public view returns(... */\n      0x40\n      dup1\n      mload\n        /* \"#utility.yul\":1224:1249   */\n      swap5\n      dup6\n      mstore\n        /* \"Campaign.sol\":2403:2424  address(this).balance */\n      selfbalance\n        /* \"#utility.yul\":1280:1282   */\n      0x20\n        /* \"#utility.yul\":1265:1283   */\n      dup7\n      add\n        /* \"#utility.yul\":1258:1292   */\n      mstore\n        /* \"#utility.yul\":1308:1326   */\n      dup5\n      add\n        /* \"#utility.yul\":1301:1335   */\n      swap3\n      swap1\n      swap3\n      mstore\n        /* \"#utility.yul\":1366:1368   */\n      0x60\n        /* \"#utility.yul\":1351:1369   */\n      dup4\n      add\n        /* \"#utility.yul\":1344:1378   */\n      mstore\n      sub(shl(0xa0, 0x01), 0x01)\n        /* \"Campaign.sol\":2485:2492  manager */\n      and\n        /* \"#utility.yul\":1409:1412   */\n      0x80\n        /* \"#utility.yul\":1394:1413   */\n      dup3\n      add\n        /* \"#utility.yul\":1387:1448   */\n      mstore\n        /* \"#utility.yul\":1211:1214   */\n      0xa0\n        /* \"#utility.yul\":1196:1215   */\n      add\n        /* \"Campaign.sol\":2257:2511  function getSummary() public view returns(... */\n      tag_24\n        /* \"#utility.yul\":965:1454   */\n      jump\n        /* \"Campaign.sol\":646:668  address public manager */\n    tag_5:\n      callvalue\n      dup1\n      iszero\n      tag_31\n      jumpi\n      0x00\n      dup1\n      revert\n    tag_31:\n      pop\n      sload(0x00)\n      tag_32\n      swap1\n      sub(shl(0xa0, 0x01), 0x01)\n      and\n      dup2\n      jump\n    tag_32:\n      mload(0x40)\n      sub(shl(0xa0, 0x01), 0x01)\n        /* \"#utility.yul\":1623:1655   */\n      swap1\n      swap2\n      and\n        /* \"#utility.yul\":1605:1656   */\n      dup2\n      mstore\n        /* \"#utility.yul\":1593:1595   */\n      0x20\n        /* \"#utility.yul\":1578:1596   */\n      add\n        /* \"Campaign.sol\":646:668  address public manager */\n      tag_24\n        /* \"#utility.yul\":1459:1662   */\n      jump\n        /* \"Campaign.sol\":819:859  mapping(uint => Request) public requests */\n    tag_6:\n      callvalue\n      dup1\n      iszero\n      tag_36\n      jumpi\n      0x00\n      dup1\n      revert\n    tag_36:\n      pop\n      tag_37\n      tag_38\n      calldatasize\n      0x04\n      tag_17\n      jump\t// in\n    tag_38:\n      tag_39\n      jump\t// in\n    tag_37:\n      mload(0x40)\n      tag_24\n      swap6\n      swap5\n      swap4\n      swap3\n      swap2\n      swap1\n      tag_41\n      jump\t// in\n        /* \"Campaign.sol\":758:784  uint public approversCount */\n    tag_7:\n      callvalue\n      dup1\n      iszero\n      tag_42\n      jumpi\n      0x00\n      dup1\n      revert\n    tag_42:\n      pop\n      tag_43\n      sload(0x03)\n      dup2\n      jump\n    tag_43:\n      mload(0x40)\n        /* \"#utility.yul\":2705:2730   */\n      swap1\n      dup2\n      mstore\n        /* \"#utility.yul\":2693:2695   */\n      0x20\n        /* \"#utility.yul\":2678:2696   */\n      add\n        /* \"Campaign.sol\":758:784  uint public approversCount */\n      tag_24\n        /* \"#utility.yul\":2559:2736   */\n      jump\n        /* \"Campaign.sol\":1296:1661  function createRequest(string memory description, uint value, address recipient) public restricted {... */\n    tag_8:\n      callvalue\n      dup1\n      iszero\n      tag_47\n      jumpi\n      0x00\n      dup1\n      revert\n    tag_47:\n      pop\n      tag_15\n      tag_49\n      calldatasize\n      0x04\n      tag_50\n      jump\t// in\n    tag_49:\n      tag_51\n      jump\t// in\n        /* \"Campaign.sol\":674:705  uint public minimumContribution */\n    tag_9:\n      callvalue\n      dup1\n      iszero\n      tag_52\n      jumpi\n      0x00\n      dup1\n      revert\n    tag_52:\n      pop\n      tag_43\n      sload(0x01)\n      dup2\n      jump\n        /* \"Campaign.sol\":790:813  uint public numRequests */\n    tag_10:\n      callvalue\n      dup1\n      iszero\n      tag_56\n      jumpi\n      0x00\n      dup1\n      revert\n    tag_56:\n      pop\n      tag_43\n      sload(0x04)\n      dup2\n      jump\n        /* \"Campaign.sol\":1074:1290  function contribute() public payable {... */\n    tag_11:\n      tag_15\n      tag_61\n      jump\t// in\n        /* \"Campaign.sol\":1667:1938  function approveRequest(uint index) public {... */\n    tag_12:\n      callvalue\n      dup1\n      iszero\n      tag_62\n      jumpi\n      0x00\n      dup1\n      revert\n    tag_62:\n      pop\n      tag_15\n      tag_64\n      calldatasize\n      0x04\n      tag_17\n      jump\t// in\n    tag_64:\n      tag_65\n      jump\t// in\n        /* \"Campaign.sol\":1944:2251  function finalizeRequest(uint index) public restricted {... */\n    tag_18:\n        /* \"Campaign.sol\":920:927  manager */\n      and(sub(shl(0xa0, 0x01), 0x01), sload(0x00))\n        /* \"Campaign.sol\":906:916  msg.sender */\n      caller\n        /* \"Campaign.sol\":906:927  msg.sender == manager */\n      eq\n        /* \"Campaign.sol\":898:928  require(msg.sender == manager) */\n      tag_67\n      jumpi\n      0x00\n      dup1\n      revert\n    tag_67:\n        /* \"Campaign.sol\":2009:2032  Request storage request */\n      0x00\n        /* \"Campaign.sol\":2035:2050  requests[index] */\n      dup2\n      dup2\n      mstore\n        /* \"Campaign.sol\":2035:2043  requests */\n      0x05\n        /* \"Campaign.sol\":2035:2050  requests[index] */\n      0x20\n      mstore\n      0x40\n      swap1\n      keccak256\n        /* \"Campaign.sol\":2070:2086  request.complete */\n      0x02\n      dup2\n      add\n      sload\n      shl(0xa0, 0x01)\n      swap1\n      div\n      0xff\n      and\n        /* \"Campaign.sol\":2069:2086  !request.complete */\n      iszero\n        /* \"Campaign.sol\":2061:2087  require(!request.complete) */\n      tag_69\n      jumpi\n      0x00\n      dup1\n      revert\n    tag_69:\n        /* \"Campaign.sol\":2147:2148  2 */\n      0x02\n        /* \"Campaign.sol\":2130:2144  approversCount */\n      sload(0x03)\n        /* \"Campaign.sol\":2130:2148  approversCount / 2 */\n      tag_70\n      swap2\n      swap1\n      tag_71\n      jump\t// in\n    tag_70:\n        /* \"Campaign.sol\":2105:2112  request */\n      dup2\n        /* \"Campaign.sol\":2105:2126  request.approvalCount */\n      0x03\n      add\n      sload\n        /* \"Campaign.sol\":2105:2149  request.approvalCount > (approversCount / 2) */\n      gt\n        /* \"Campaign.sol\":2097:2150  require(request.approvalCount > (approversCount / 2)) */\n      tag_72\n      jumpi\n      0x00\n      dup1\n      revert\n    tag_72:\n        /* \"Campaign.sol\":2169:2186  request.recipient */\n      0x02\n      dup2\n      add\n      sload\n      0x01\n        /* \"Campaign.sol\":2197:2210  request.value */\n      dup3\n      add\n      sload\n        /* \"Campaign.sol\":2161:2211  payable(request.recipient).transfer(request.value) */\n      mload(0x40)\n      sub(shl(0xa0, 0x01), 0x01)\n        /* \"Campaign.sol\":2169:2186  request.recipient */\n      swap1\n      swap3\n      and\n      swap2\n        /* \"Campaign.sol\":2161:2211  payable(request.recipient).transfer(request.value) */\n      dup2\n      iszero\n      0x08fc\n      mul\n      swap2\n        /* \"Campaign.sol\":2197:2210  request.value */\n      swap1\n        /* \"Campaign.sol\":2169:2186  request.recipient */\n      0x00\n        /* \"Campaign.sol\":2161:2211  payable(request.recipient).transfer(request.value) */\n      dup2\n        /* \"Campaign.sol\":2169:2186  request.recipient */\n      dup2\n        /* \"Campaign.sol\":2161:2211  payable(request.recipient).transfer(request.value) */\n      dup2\n        /* \"Campaign.sol\":2197:2210  request.value */\n      dup6\n        /* \"Campaign.sol\":2169:2186  request.recipient */\n      dup9\n        /* \"Campaign.sol\":2161:2211  payable(request.recipient).transfer(request.value) */\n      dup9\n      call\n      swap4\n      pop\n      pop\n      pop\n      pop\n      iszero\n      dup1\n      iszero\n      tag_74\n      jumpi\n      returndatasize\n      0x00\n      dup1\n      returndatacopy\n      revert(0x00, returndatasize)\n    tag_74:\n      pop\n        /* \"Campaign.sol\":2221:2237  request.complete */\n      0x02\n      add\n        /* \"Campaign.sol\":2221:2244  request.complete = true */\n      dup1\n      sload\n      not(shl(0xa0, 0xff))\n      and\n      shl(0xa0, 0x01)\n      or\n      swap1\n      sstore\n      pop\n        /* \"Campaign.sol\":1944:2251  function finalizeRequest(uint index) public restricted {... */\n      jump\t// out\n        /* \"Campaign.sol\":819:859  mapping(uint => Request) public requests */\n    tag_39:\n      mstore(0x20, 0x05)\n      0x00\n      swap1\n      dup2\n      mstore\n      0x40\n      swap1\n      keccak256\n      dup1\n      sload\n      dup2\n      swap1\n      tag_76\n      swap1\n      tag_77\n      jump\t// in\n    tag_76:\n      dup1\n      0x1f\n      add\n      0x20\n      dup1\n      swap2\n      div\n      mul\n      0x20\n      add\n      mload(0x40)\n      swap1\n      dup2\n      add\n      0x40\n      mstore\n      dup1\n      swap3\n      swap2\n      swap1\n      dup2\n      dup2\n      mstore\n      0x20\n      add\n      dup3\n      dup1\n      sload\n      tag_78\n      swap1\n      tag_77\n      jump\t// in\n    tag_78:\n      dup1\n      iszero\n      tag_79\n      jumpi\n      dup1\n      0x1f\n      lt\n      tag_80\n      jumpi\n      0x0100\n      dup1\n      dup4\n      sload\n      div\n      mul\n      dup4\n      mstore\n      swap2\n      0x20\n      add\n      swap2\n      jump(tag_79)\n    tag_80:\n      dup3\n      add\n      swap2\n      swap1\n      0x00\n      mstore\n      keccak256(0x00, 0x20)\n      swap1\n    tag_81:\n      dup2\n      sload\n      dup2\n      mstore\n      swap1\n      0x01\n      add\n      swap1\n      0x20\n      add\n      dup1\n      dup4\n      gt\n      tag_81\n      jumpi\n      dup3\n      swap1\n      sub\n      0x1f\n      and\n      dup3\n      add\n      swap2\n    tag_79:\n      pop\n      pop\n      pop\n      pop\n      0x01\n      dup4\n      add\n      sload\n      0x02\n      dup5\n      add\n      sload\n      0x03\n      swap1\n      swap5\n      add\n      sload\n      swap3\n      swap4\n      swap1\n      swap3\n      sub(shl(0xa0, 0x01), 0x01)\n      dup3\n      and\n      swap3\n      pop\n      shl(0xa0, 0x01)\n      swap1\n      swap2\n      div\n      0xff\n      and\n      swap1\n      dup6\n      jump\t// out\n        /* \"Campaign.sol\":1296:1661  function createRequest(string memory description, uint value, address recipient) public restricted {... */\n    tag_51:\n        /* \"Campaign.sol\":920:927  manager */\n      and(sub(shl(0xa0, 0x01), 0x01), sload(0x00))\n        /* \"Campaign.sol\":906:916  msg.sender */\n      caller\n        /* \"Campaign.sol\":906:927  msg.sender == manager */\n      eq\n        /* \"Campaign.sol\":898:928  require(msg.sender == manager) */\n      tag_83\n      jumpi\n      0x00\n      dup1\n      revert\n    tag_83:\n        /* \"Campaign.sol\":1443:1454  numRequests */\n      0x04\n        /* \"Campaign.sol\":1443:1456  numRequests++ */\n      dup1\n      sload\n        /* \"Campaign.sol\":1405:1431  Request storage newRequest */\n      0x00\n      swap2\n        /* \"Campaign.sol\":1434:1442  requests */\n      0x05\n      swap2\n        /* \"Campaign.sol\":1405:1431  Request storage newRequest */\n      dup4\n      swap2\n      dup3\n        /* \"Campaign.sol\":1443:1456  numRequests++ */\n      tag_85\n      dup4\n      tag_86\n      jump\t// in\n    tag_85:\n      swap1\n      swap2\n      sstore\n      pop\n        /* \"Campaign.sol\":1434:1457  requests[numRequests++] */\n      dup2\n      mstore\n      0x20\n      dup1\n      dup3\n      add\n      swap3\n      swap1\n      swap3\n      mstore\n      0x40\n      add\n      0x00\n      keccak256\n        /* \"Campaign.sol\":1467:1503  newRequest.description = description */\n      dup6\n      mload\n        /* \"Campaign.sol\":1434:1457  requests[numRequests++] */\n      swap1\n      swap3\n      pop\n        /* \"Campaign.sol\":1467:1503  newRequest.description = description */\n      tag_87\n      swap2\n        /* \"Campaign.sol\":1434:1457  requests[numRequests++] */\n      dup4\n      swap2\n        /* \"Campaign.sol\":1467:1503  newRequest.description = description */\n      swap1\n      dup8\n      add\n      swap1\n      tag_88\n      jump\t// in\n    tag_87:\n      pop\n        /* \"Campaign.sol\":1513:1529  newRequest.value */\n      0x01\n      dup2\n      add\n        /* \"Campaign.sol\":1513:1537  newRequest.value = value */\n      swap3\n      swap1\n      swap3\n      sstore\n        /* \"Campaign.sol\":1547:1567  newRequest.recipient */\n      0x02\n      dup3\n      add\n        /* \"Campaign.sol\":1547:1579  newRequest.recipient = recipient */\n      dup1\n      sload\n      not(sub(shl(0xa8, 0x01), 0x01))\n        /* \"Campaign.sol\":1589:1616  newRequest.complete = false */\n      and\n      sub(shl(0xa0, 0x01), 0x01)\n        /* \"Campaign.sol\":1547:1579  newRequest.recipient = recipient */\n      swap1\n      swap3\n      and\n        /* \"Campaign.sol\":1589:1616  newRequest.complete = false */\n      swap2\n      swap1\n      swap2\n      or\n      swap1\n      sstore\n        /* \"Campaign.sol\":1547:1567  newRequest.recipient */\n      0x00\n        /* \"Campaign.sol\":1626:1650  newRequest.approvalCount */\n      0x03\n      swap1\n      swap2\n      add\n        /* \"Campaign.sol\":1626:1654  newRequest.approvalCount = 0 */\n      sstore\n      pop\n        /* \"Campaign.sol\":1296:1661  function createRequest(string memory description, uint value, address recipient) public restricted {... */\n      jump\t// out\n        /* \"Campaign.sol\":1074:1290  function contribute() public payable {... */\n    tag_61:\n        /* \"Campaign.sol\":1142:1161  minimumContribution */\n      sload(0x01)\n        /* \"Campaign.sol\":1129:1138  msg.value */\n      callvalue\n        /* \"Campaign.sol\":1129:1161  msg.value >= minimumContribution */\n      lt\n      iszero\n        /* \"Campaign.sol\":1121:1162  require(msg.value >= minimumContribution) */\n      tag_90\n      jumpi\n      0x00\n      dup1\n      revert\n    tag_90:\n        /* \"Campaign.sol\":1188:1198  msg.sender */\n      caller\n        /* \"Campaign.sol\":1178:1199  approvers[msg.sender] */\n      0x00\n      swap1\n      dup2\n      mstore\n        /* \"Campaign.sol\":1178:1187  approvers */\n      0x02\n        /* \"Campaign.sol\":1178:1199  approvers[msg.sender] */\n      0x20\n      mstore\n      0x40\n      swap1\n      keccak256\n      sload\n      0xff\n      and\n        /* \"Campaign.sol\":1173:1284  if (!approvers[msg.sender]) {... */\n      tag_91\n      jumpi\n        /* \"Campaign.sol\":1225:1235  msg.sender */\n      caller\n        /* \"Campaign.sol\":1215:1236  approvers[msg.sender] */\n      0x00\n      swap1\n      dup2\n      mstore\n        /* \"Campaign.sol\":1215:1224  approvers */\n      0x02\n        /* \"Campaign.sol\":1215:1236  approvers[msg.sender] */\n      0x20\n      mstore\n      0x40\n      dup2\n      keccak256\n        /* \"Campaign.sol\":1215:1243  approvers[msg.sender] = true */\n      dup1\n      sload\n      not(0xff)\n      and\n        /* \"Campaign.sol\":1239:1243  true */\n      0x01\n        /* \"Campaign.sol\":1215:1243  approvers[msg.sender] = true */\n      or\n      swap1\n      sstore\n        /* \"Campaign.sol\":1257:1271  approversCount */\n      0x03\n        /* \"Campaign.sol\":1257:1273  approversCount++ */\n      dup1\n      sload\n      swap2\n      tag_92\n      dup4\n      tag_86\n      jump\t// in\n    tag_92:\n      swap2\n      swap1\n      pop\n      sstore\n      pop\n        /* \"Campaign.sol\":1173:1284  if (!approvers[msg.sender]) {... */\n    tag_91:\n        /* \"Campaign.sol\":1074:1290  function contribute() public payable {... */\n      jump\t// out\n        /* \"Campaign.sol\":1667:1938  function approveRequest(uint index) public {... */\n    tag_65:\n        /* \"Campaign.sol\":1738:1748  msg.sender */\n      caller\n        /* \"Campaign.sol\":1728:1749  approvers[msg.sender] */\n      0x00\n      swap1\n      dup2\n      mstore\n        /* \"Campaign.sol\":1728:1737  approvers */\n      0x02\n        /* \"Campaign.sol\":1728:1749  approvers[msg.sender] */\n      0x20\n      mstore\n      0x40\n      swap1\n      keccak256\n      sload\n      0xff\n      and\n        /* \"Campaign.sol\":1720:1750  require(approvers[msg.sender]) */\n      tag_94\n      jumpi\n      0x00\n      dup1\n      revert\n    tag_94:\n        /* \"Campaign.sol\":1761:1784  Request storage request */\n      0x00\n        /* \"Campaign.sol\":1787:1802  requests[index] */\n      dup2\n      dup2\n      mstore\n        /* \"Campaign.sol\":1787:1795  requests */\n      0x05\n        /* \"Campaign.sol\":1787:1802  requests[index] */\n      0x20\n      swap1\n      dup2\n      mstore\n      0x40\n      dup1\n      dup4\n      keccak256\n        /* \"Campaign.sol\":1839:1849  msg.sender */\n      caller\n        /* \"Campaign.sol\":1821:1850  request.approvals[msg.sender] */\n      dup5\n      mstore\n        /* \"Campaign.sol\":1821:1838  request.approvals */\n      0x04\n      dup2\n      add\n        /* \"Campaign.sol\":1821:1850  request.approvals[msg.sender] */\n      swap1\n      swap3\n      mstore\n      swap1\n      swap2\n      keccak256\n      sload\n      0xff\n      and\n        /* \"Campaign.sol\":1820:1850  !request.approvals[msg.sender] */\n      iszero\n        /* \"Campaign.sol\":1812:1851  require(!request.approvals[msg.sender]) */\n      tag_95\n      jumpi\n      0x00\n      dup1\n      revert\n    tag_95:\n        /* \"Campaign.sol\":1880:1890  msg.sender */\n      caller\n        /* \"Campaign.sol\":1862:1891  request.approvals[msg.sender] */\n      0x00\n      swap1\n      dup2\n      mstore\n        /* \"Campaign.sol\":1862:1879  request.approvals */\n      0x04\n      dup3\n      add\n        /* \"Campaign.sol\":1862:1891  request.approvals[msg.sender] */\n      0x20\n      mstore\n      0x40\n      dup2\n      keccak256\n        /* \"Campaign.sol\":1862:1898  request.approvals[msg.sender] = true */\n      dup1\n      sload\n      not(0xff)\n      and\n        /* \"Campaign.sol\":1894:1898  true */\n      0x01\n        /* \"Campaign.sol\":1862:1898  request.approvals[msg.sender] = true */\n      or\n      swap1\n      sstore\n        /* \"Campaign.sol\":1908:1929  request.approvalCount */\n      0x03\n      dup3\n      add\n        /* \"Campaign.sol\":1908:1931  request.approvalCount++ */\n      dup1\n      sload\n      swap2\n      tag_96\n      dup4\n      tag_86\n      jump\t// in\n    tag_96:\n      swap2\n      swap1\n      pop\n      sstore\n      pop\n        /* \"Campaign.sol\":1710:1938  {... */\n      pop\n        /* \"Campaign.sol\":1667:1938  function approveRequest(uint index) public {... */\n      pop\n      jump\t// out\n    tag_88:\n      dup3\n      dup1\n      sload\n      tag_97\n      swap1\n      tag_77\n      jump\t// in\n    tag_97:\n      swap1\n      0x00\n      mstore\n      keccak256(0x00, 0x20)\n      swap1\n      0x1f\n      add\n      0x20\n      swap1\n      div\n      dup2\n      add\n      swap3\n      dup3\n      tag_99\n      jumpi\n      0x00\n      dup6\n      sstore\n      jump(tag_102)\n    tag_99:\n      dup3\n      0x1f\n      lt\n      tag_100\n      jumpi\n      dup1\n      mload\n      not(0xff)\n      and\n      dup4\n      dup1\n      add\n      or\n      dup6\n      sstore\n      jump(tag_102)\n    tag_100:\n      dup3\n      dup1\n      add\n      0x01\n      add\n      dup6\n      sstore\n      dup3\n      iszero\n      tag_102\n      jumpi\n      swap2\n      dup3\n      add\n    tag_101:\n      dup3\n      dup2\n      gt\n      iszero\n      tag_102\n      jumpi\n      dup3\n      mload\n      dup3\n      sstore\n      swap2\n      0x20\n      add\n      swap2\n      swap1\n      0x01\n      add\n      swap1\n      jump(tag_101)\n    tag_102:\n      pop\n      tag_103\n      swap3\n      swap2\n      pop\n      tag_104\n      jump\t// in\n    tag_103:\n      pop\n      swap1\n      jump\t// out\n    tag_104:\n    tag_105:\n      dup1\n      dup3\n      gt\n      iszero\n      tag_103\n      jumpi\n      0x00\n      dup2\n      sstore\n      0x01\n      add\n      jump(tag_105)\n        /* \"#utility.yul\":14:194   */\n    tag_17:\n        /* \"#utility.yul\":73:79   */\n      0x00\n        /* \"#utility.yul\":126:128   */\n      0x20\n        /* \"#utility.yul\":114:123   */\n      dup3\n        /* \"#utility.yul\":105:112   */\n      dup5\n        /* \"#utility.yul\":101:124   */\n      sub\n        /* \"#utility.yul\":97:129   */\n      slt\n        /* \"#utility.yul\":94:146   */\n      iszero\n      tag_113\n      jumpi\n        /* \"#utility.yul\":142:143   */\n      0x00\n        /* \"#utility.yul\":139:140   */\n      dup1\n        /* \"#utility.yul\":132:144   */\n      revert\n        /* \"#utility.yul\":94:146   */\n    tag_113:\n      pop\n        /* \"#utility.yul\":165:188   */\n      calldataload\n      swap2\n        /* \"#utility.yul\":14:194   */\n      swap1\n      pop\n      jump\t// out\n        /* \"#utility.yul\":199:372   */\n    tag_107:\n        /* \"#utility.yul\":267:287   */\n      dup1\n      calldataload\n      sub(shl(0xa0, 0x01), 0x01)\n        /* \"#utility.yul\":316:347   */\n      dup2\n      and\n        /* \"#utility.yul\":306:348   */\n      dup2\n      eq\n        /* \"#utility.yul\":296:366   */\n      tag_115\n      jumpi\n        /* \"#utility.yul\":362:363   */\n      0x00\n        /* \"#utility.yul\":359:360   */\n      dup1\n        /* \"#utility.yul\":352:364   */\n      revert\n        /* \"#utility.yul\":296:366   */\n    tag_115:\n        /* \"#utility.yul\":199:372   */\n      swap2\n      swap1\n      pop\n      jump\t// out\n        /* \"#utility.yul\":377:563   */\n    tag_22:\n        /* \"#utility.yul\":436:442   */\n      0x00\n        /* \"#utility.yul\":489:491   */\n      0x20\n        /* \"#utility.yul\":477:486   */\n      dup3\n        /* \"#utility.yul\":468:475   */\n      dup5\n        /* \"#utility.yul\":464:487   */\n      sub\n        /* \"#utility.yul\":460:492   */\n      slt\n        /* \"#utility.yul\":457:509   */\n      iszero\n      tag_117\n      jumpi\n        /* \"#utility.yul\":505:506   */\n      0x00\n        /* \"#utility.yul\":502:503   */\n      dup1\n        /* \"#utility.yul\":495:507   */\n      revert\n        /* \"#utility.yul\":457:509   */\n    tag_117:\n        /* \"#utility.yul\":528:557   */\n      tag_118\n        /* \"#utility.yul\":547:556   */\n      dup3\n        /* \"#utility.yul\":528:557   */\n      tag_107\n      jump\t// in\n    tag_118:\n        /* \"#utility.yul\":518:557   */\n      swap4\n        /* \"#utility.yul\":377:563   */\n      swap3\n      pop\n      pop\n      pop\n      jump\t// out\n        /* \"#utility.yul\":1667:2554   */\n    tag_41:\n        /* \"#utility.yul\":1922:1925   */\n      0xa0\n        /* \"#utility.yul\":1911:1920   */\n      dup2\n        /* \"#utility.yul\":1904:1926   */\n      mstore\n        /* \"#utility.yul\":1885:1889   */\n      0x00\n        /* \"#utility.yul\":1955:1961   */\n      dup7\n        /* \"#utility.yul\":1949:1962   */\n      mload\n        /* \"#utility.yul\":1999:2005   */\n      dup1\n        /* \"#utility.yul\":1993:1996   */\n      0xa0\n        /* \"#utility.yul\":1982:1991   */\n      dup5\n        /* \"#utility.yul\":1978:1997   */\n      add\n        /* \"#utility.yul\":1971:2006   */\n      mstore\n        /* \"#utility.yul\":2024:2025   */\n      0x00\n        /* \"#utility.yul\":2034:2179   */\n    tag_125:\n        /* \"#utility.yul\":2048:2054   */\n      dup2\n        /* \"#utility.yul\":2045:2046   */\n      dup2\n        /* \"#utility.yul\":2042:2055   */\n      lt\n        /* \"#utility.yul\":2034:2179   */\n      iszero\n      tag_127\n      jumpi\n        /* \"#utility.yul\":2162:2166   */\n      0x20\n        /* \"#utility.yul\":2146:2160   */\n      dup2\n      dup11\n      add\n        /* \"#utility.yul\":2142:2167   */\n      dup2\n      add\n        /* \"#utility.yul\":2136:2168   */\n      mload\n        /* \"#utility.yul\":2130:2133   */\n      0xc0\n        /* \"#utility.yul\":2111:2128   */\n      dup7\n      dup5\n      add\n        /* \"#utility.yul\":2107:2134   */\n      add\n        /* \"#utility.yul\":2100:2169   */\n      mstore\n        /* \"#utility.yul\":2063:2075   */\n      add\n        /* \"#utility.yul\":2034:2179   */\n      jump(tag_125)\n    tag_127:\n        /* \"#utility.yul\":2197:2203   */\n      dup2\n        /* \"#utility.yul\":2194:2195   */\n      dup2\n        /* \"#utility.yul\":2191:2204   */\n      gt\n        /* \"#utility.yul\":2188:2280   */\n      iszero\n      tag_128\n      jumpi\n        /* \"#utility.yul\":2268:2269   */\n      0x00\n        /* \"#utility.yul\":2262:2265   */\n      0xc0\n        /* \"#utility.yul\":2253:2259   */\n      dup4\n        /* \"#utility.yul\":2242:2251   */\n      dup7\n        /* \"#utility.yul\":2238:2260   */\n      add\n        /* \"#utility.yul\":2234:2266   */\n      add\n        /* \"#utility.yul\":2227:2270   */\n      mstore\n        /* \"#utility.yul\":2188:2280   */\n    tag_128:\n      pop\n        /* \"#utility.yul\":2383:2387   */\n      0x20\n        /* \"#utility.yul\":2368:2388   */\n      dup4\n      add\n        /* \"#utility.yul\":2361:2397   */\n      dup8\n      swap1\n      mstore\n        /* \"#utility.yul\":2341:2343   */\n      0x1f\n        /* \"#utility.yul\":2320:2335   */\n      add\n      not(0x1f)\n        /* \"#utility.yul\":2316:2345   */\n      and\n        /* \"#utility.yul\":2301:2346   */\n      dup3\n      add\n        /* \"#utility.yul\":2348:2351   */\n      0xc0\n        /* \"#utility.yul\":2297:2352   */\n      add\n      swap1\n      pop\n        /* \"#utility.yul\":2406:2452   */\n      tag_129\n        /* \"#utility.yul\":2448:2450   */\n      0x40\n        /* \"#utility.yul\":2433:2451   */\n      dup4\n      add\n        /* \"#utility.yul\":2425:2431   */\n      dup7\n      sub(shl(0xa0, 0x01), 0x01)\n        /* \"#utility.yul\":922:953   */\n      and\n        /* \"#utility.yul\":910:954   */\n      swap1\n      mstore\n        /* \"#utility.yul\":856:960   */\n      jump\n        /* \"#utility.yul\":2406:2452   */\n    tag_129:\n        /* \"#utility.yul\":638:651   */\n      swap3\n      iszero\n        /* \"#utility.yul\":631:652   */\n      iszero\n        /* \"#utility.yul\":2500:2502   */\n      0x60\n        /* \"#utility.yul\":2485:2503   */\n      dup3\n      add\n        /* \"#utility.yul\":619:653   */\n      mstore\n        /* \"#utility.yul\":2535:2538   */\n      0x80\n        /* \"#utility.yul\":2520:2539   */\n      add\n        /* \"#utility.yul\":2513:2548   */\n      mstore\n        /* \"#utility.yul\":1667:2554   */\n      swap4\n      swap3\n      pop\n      pop\n      pop\n      jump\t// out\n        /* \"#utility.yul\":2741:2868   */\n    tag_110:\n        /* \"#utility.yul\":2802:2812   */\n      0x4e487b71\n        /* \"#utility.yul\":2797:2800   */\n      0xe0\n        /* \"#utility.yul\":2793:2813   */\n      shl\n        /* \"#utility.yul\":2790:2791   */\n      0x00\n        /* \"#utility.yul\":2783:2814   */\n      mstore\n        /* \"#utility.yul\":2833:2837   */\n      0x41\n        /* \"#utility.yul\":2830:2831   */\n      0x04\n        /* \"#utility.yul\":2823:2838   */\n      mstore\n        /* \"#utility.yul\":2857:2861   */\n      0x24\n        /* \"#utility.yul\":2854:2855   */\n      0x00\n        /* \"#utility.yul\":2847:2862   */\n      revert\n        /* \"#utility.yul\":2873:3947   */\n    tag_50:\n        /* \"#utility.yul\":2960:2966   */\n      0x00\n        /* \"#utility.yul\":2968:2974   */\n      dup1\n        /* \"#utility.yul\":2976:2982   */\n      0x00\n        /* \"#utility.yul\":3029:3031   */\n      0x60\n        /* \"#utility.yul\":3017:3026   */\n      dup5\n        /* \"#utility.yul\":3008:3015   */\n      dup7\n        /* \"#utility.yul\":3004:3027   */\n      sub\n        /* \"#utility.yul\":3000:3032   */\n      slt\n        /* \"#utility.yul\":2997:3049   */\n      iszero\n      tag_134\n      jumpi\n        /* \"#utility.yul\":3045:3046   */\n      0x00\n        /* \"#utility.yul\":3042:3043   */\n      dup1\n        /* \"#utility.yul\":3035:3047   */\n      revert\n        /* \"#utility.yul\":2997:3049   */\n    tag_134:\n        /* \"#utility.yul\":3085:3094   */\n      dup4\n        /* \"#utility.yul\":3072:3095   */\n      calldataload\n        /* \"#utility.yul\":3114:3132   */\n      0xffffffffffffffff\n        /* \"#utility.yul\":3155:3157   */\n      dup1\n        /* \"#utility.yul\":3147:3153   */\n      dup3\n        /* \"#utility.yul\":3144:3158   */\n      gt\n        /* \"#utility.yul\":3141:3175   */\n      iszero\n      tag_135\n      jumpi\n        /* \"#utility.yul\":3171:3172   */\n      0x00\n        /* \"#utility.yul\":3168:3169   */\n      dup1\n        /* \"#utility.yul\":3161:3173   */\n      revert\n        /* \"#utility.yul\":3141:3175   */\n    tag_135:\n        /* \"#utility.yul\":3209:3215   */\n      dup2\n        /* \"#utility.yul\":3198:3207   */\n      dup7\n        /* \"#utility.yul\":3194:3216   */\n      add\n        /* \"#utility.yul\":3184:3216   */\n      swap2\n      pop\n        /* \"#utility.yul\":3254:3261   */\n      dup7\n        /* \"#utility.yul\":3247:3251   */\n      0x1f\n        /* \"#utility.yul\":3243:3245   */\n      dup4\n        /* \"#utility.yul\":3239:3252   */\n      add\n        /* \"#utility.yul\":3235:3262   */\n      slt\n        /* \"#utility.yul\":3225:3280   */\n      tag_136\n      jumpi\n        /* \"#utility.yul\":3276:3277   */\n      0x00\n        /* \"#utility.yul\":3273:3274   */\n      dup1\n        /* \"#utility.yul\":3266:3278   */\n      revert\n        /* \"#utility.yul\":3225:3280   */\n    tag_136:\n        /* \"#utility.yul\":3312:3314   */\n      dup2\n        /* \"#utility.yul\":3299:3315   */\n      calldataload\n        /* \"#utility.yul\":3334:3336   */\n      dup2\n        /* \"#utility.yul\":3330:3332   */\n      dup2\n        /* \"#utility.yul\":3327:3337   */\n      gt\n        /* \"#utility.yul\":3324:3360   */\n      iszero\n      tag_138\n      jumpi\n        /* \"#utility.yul\":3340:3358   */\n      tag_138\n      tag_110\n      jump\t// in\n    tag_138:\n        /* \"#utility.yul\":3415:3417   */\n      0x40\n        /* \"#utility.yul\":3409:3418   */\n      mload\n        /* \"#utility.yul\":3383:3385   */\n      0x1f\n        /* \"#utility.yul\":3469:3482   */\n      dup3\n      add\n      not(0x1f)\n        /* \"#utility.yul\":3465:3487   */\n      swap1\n      dup2\n      and\n        /* \"#utility.yul\":3489:3491   */\n      0x3f\n        /* \"#utility.yul\":3461:3492   */\n      add\n        /* \"#utility.yul\":3457:3497   */\n      and\n        /* \"#utility.yul\":3445:3498   */\n      dup2\n      add\n      swap1\n        /* \"#utility.yul\":3513:3531   */\n      dup4\n      dup3\n      gt\n        /* \"#utility.yul\":3533:3555   */\n      dup2\n      dup4\n      lt\n        /* \"#utility.yul\":3510:3556   */\n      or\n        /* \"#utility.yul\":3507:3579   */\n      iszero\n      tag_140\n      jumpi\n        /* \"#utility.yul\":3559:3577   */\n      tag_140\n      tag_110\n      jump\t// in\n    tag_140:\n        /* \"#utility.yul\":3599:3609   */\n      dup2\n        /* \"#utility.yul\":3595:3597   */\n      0x40\n        /* \"#utility.yul\":3588:3610   */\n      mstore\n        /* \"#utility.yul\":3634:3636   */\n      dup3\n        /* \"#utility.yul\":3626:3632   */\n      dup2\n        /* \"#utility.yul\":3619:3637   */\n      mstore\n        /* \"#utility.yul\":3676:3683   */\n      dup10\n        /* \"#utility.yul\":3669:3673   */\n      0x20\n        /* \"#utility.yul\":3664:3666   */\n      dup5\n        /* \"#utility.yul\":3660:3662   */\n      dup8\n        /* \"#utility.yul\":3656:3667   */\n      add\n        /* \"#utility.yul\":3652:3674   */\n      add\n        /* \"#utility.yul\":3649:3684   */\n      gt\n        /* \"#utility.yul\":3646:3701   */\n      iszero\n      tag_141\n      jumpi\n        /* \"#utility.yul\":3697:3698   */\n      0x00\n        /* \"#utility.yul\":3694:3695   */\n      dup1\n        /* \"#utility.yul\":3687:3699   */\n      revert\n        /* \"#utility.yul\":3646:3701   */\n    tag_141:\n        /* \"#utility.yul\":3757:3759   */\n      dup3\n        /* \"#utility.yul\":3750:3754   */\n      0x20\n        /* \"#utility.yul\":3746:3748   */\n      dup7\n        /* \"#utility.yul\":3742:3755   */\n      add\n        /* \"#utility.yul\":3735:3739   */\n      0x20\n        /* \"#utility.yul\":3727:3733   */\n      dup4\n        /* \"#utility.yul\":3723:3740   */\n      add\n        /* \"#utility.yul\":3710:3760   */\n      calldatacopy\n        /* \"#utility.yul\":3804:3805   */\n      0x00\n        /* \"#utility.yul\":3797:3801   */\n      0x20\n        /* \"#utility.yul\":3792:3794   */\n      dup5\n        /* \"#utility.yul\":3784:3790   */\n      dup4\n        /* \"#utility.yul\":3780:3795   */\n      add\n        /* \"#utility.yul\":3776:3802   */\n      add\n        /* \"#utility.yul\":3769:3806   */\n      mstore\n        /* \"#utility.yul\":3825:3831   */\n      dup1\n        /* \"#utility.yul\":3815:3831   */\n      swap8\n      pop\n      pop\n      pop\n      pop\n      pop\n      pop\n        /* \"#utility.yul\":3878:3882   */\n      0x20\n        /* \"#utility.yul\":3867:3876   */\n      dup5\n        /* \"#utility.yul\":3863:3883   */\n      add\n        /* \"#utility.yul\":3850:3884   */\n      calldataload\n        /* \"#utility.yul\":3840:3884   */\n      swap2\n      pop\n        /* \"#utility.yul\":3903:3941   */\n      tag_142\n        /* \"#utility.yul\":3937:3939   */\n      0x40\n        /* \"#utility.yul\":3926:3935   */\n      dup6\n        /* \"#utility.yul\":3922:3940   */\n      add\n        /* \"#utility.yul\":3903:3941   */\n      tag_107\n      jump\t// in\n    tag_142:\n        /* \"#utility.yul\":3893:3941   */\n      swap1\n      pop\n        /* \"#utility.yul\":2873:3947   */\n      swap3\n      pop\n      swap3\n      pop\n      swap3\n      jump\t// out\n        /* \"#utility.yul\":3952:4169   */\n    tag_71:\n        /* \"#utility.yul\":3992:3993   */\n      0x00\n        /* \"#utility.yul\":4018:4019   */\n      dup3\n        /* \"#utility.yul\":4008:4140   */\n      tag_144\n      jumpi\n        /* \"#utility.yul\":4062:4072   */\n      0x4e487b71\n        /* \"#utility.yul\":4057:4060   */\n      0xe0\n        /* \"#utility.yul\":4053:4073   */\n      shl\n        /* \"#utility.yul\":4050:4051   */\n      0x00\n        /* \"#utility.yul\":4043:4074   */\n      mstore\n        /* \"#utility.yul\":4097:4101   */\n      0x12\n        /* \"#utility.yul\":4094:4095   */\n      0x04\n        /* \"#utility.yul\":4087:4102   */\n      mstore\n        /* \"#utility.yul\":4125:4129   */\n      0x24\n        /* \"#utility.yul\":4122:4123   */\n      0x00\n        /* \"#utility.yul\":4115:4130   */\n      revert\n        /* \"#utility.yul\":4008:4140   */\n    tag_144:\n      pop\n        /* \"#utility.yul\":4154:4163   */\n      div\n      swap1\n        /* \"#utility.yul\":3952:4169   */\n      jump\t// out\n        /* \"#utility.yul\":4174:4554   */\n    tag_77:\n        /* \"#utility.yul\":4253:4254   */\n      0x01\n        /* \"#utility.yul\":4249:4261   */\n      dup2\n      dup2\n      shr\n      swap1\n        /* \"#utility.yul\":4296:4308   */\n      dup3\n      and\n      dup1\n        /* \"#utility.yul\":4317:4378   */\n      tag_146\n      jumpi\n        /* \"#utility.yul\":4371:4375   */\n      0x7f\n        /* \"#utility.yul\":4363:4369   */\n      dup3\n        /* \"#utility.yul\":4359:4376   */\n      and\n        /* \"#utility.yul\":4349:4376   */\n      swap2\n      pop\n        /* \"#utility.yul\":4317:4378   */\n    tag_146:\n        /* \"#utility.yul\":4424:4426   */\n      0x20\n        /* \"#utility.yul\":4416:4422   */\n      dup3\n        /* \"#utility.yul\":4413:4427   */\n      lt\n        /* \"#utility.yul\":4393:4411   */\n      dup2\n        /* \"#utility.yul\":4390:4428   */\n      eq\n        /* \"#utility.yul\":4387:4548   */\n      iszero\n      tag_147\n      jumpi\n        /* \"#utility.yul\":4470:4480   */\n      0x4e487b71\n        /* \"#utility.yul\":4465:4468   */\n      0xe0\n        /* \"#utility.yul\":4461:4481   */\n      shl\n        /* \"#utility.yul\":4458:4459   */\n      0x00\n        /* \"#utility.yul\":4451:4482   */\n      mstore\n        /* \"#utility.yul\":4505:4509   */\n      0x22\n        /* \"#utility.yul\":4502:4503   */\n      0x04\n        /* \"#utility.yul\":4495:4510   */\n      mstore\n        /* \"#utility.yul\":4533:4537   */\n      0x24\n        /* \"#utility.yul\":4530:4531   */\n      0x00\n        /* \"#utility.yul\":4523:4538   */\n      revert\n        /* \"#utility.yul\":4387:4548   */\n    tag_147:\n      pop\n        /* \"#utility.yul\":4174:4554   */\n      swap2\n      swap1\n      pop\n      jump\t// out\n        /* \"#utility.yul\":4559:4791   */\n    tag_86:\n        /* \"#utility.yul\":4598:4601   */\n      0x00\n      not(0x00)\n        /* \"#utility.yul\":4619:4636   */\n      dup3\n      eq\n        /* \"#utility.yul\":4616:4756   */\n      iszero\n      tag_149\n      jumpi\n        /* \"#utility.yul\":4678:4688   */\n      0x4e487b71\n        /* \"#utility.yul\":4673:4676   */\n      0xe0\n        /* \"#utility.yul\":4669:4689   */\n      shl\n        /* \"#utility.yul\":4666:4667   */\n      0x00\n        /* \"#utility.yul\":4659:4690   */\n      mstore\n        /* \"#utility.yul\":4713:4717   */\n      0x11\n        /* \"#utility.yul\":4710:4711   */\n      0x04\n        /* \"#utility.yul\":4703:4718   */\n      mstore\n        /* \"#utility.yul\":4741:4745   */\n      0x24\n        /* \"#utility.yul\":4738:4739   */\n      0x00\n        /* \"#utility.yul\":4731:4746   */\n      revert\n        /* \"#utility.yul\":4616:4756   */\n    tag_149:\n      pop\n        /* \"#utility.yul\":4783:4784   */\n      0x01\n        /* \"#utility.yul\":4772:4785   */\n      add\n      swap1\n        /* \"#utility.yul\":4559:4791   */\n      jump\t// out\n\n    auxdata: 0xa2646970667358221220f6cd562e5aaf3770e45e7ac5110e6f1a0cec4246e75a54c8fac953ada2dfafa164736f6c63430008090033\n}\n","bytecode":{"linkReferences":{},"object":"608060405234801561001057600080fd5b506040516108d73803806108d783398101604081905261002f91610057565b600080546001600160a01b0319166001600160a01b0392909216919091179055600155610094565b6000806040838503121561006a57600080fd5b825160208401519092506001600160a01b038116811461008957600080fd5b809150509250929050565b610834806100a36000396000f3fe60806040526004361061009c5760003560e01c806382fde0931161006457806382fde093146101b85780638a9cfd55146101dc578063937e09b1146101fc5780639fb42b1f14610212578063d7bb99ba14610228578063d7d1bbdb1461023057600080fd5b806303441006146100a15780630a144391146100c35780634051ddac14610108578063481c6a751461014f57806381d12c5814610187575b600080fd5b3480156100ad57600080fd5b506100c16100bc3660046105c2565b610250565b005b3480156100cf57600080fd5b506100f36100de3660046105f7565b60026020526000908152604090205460ff1681565b60405190151581526020015b60405180910390f35b34801561011457600080fd5b506001546004546003546000546040805194855247602086015284019290925260608301526001600160a01b0316608082015260a0016100ff565b34801561015b57600080fd5b5060005461016f906001600160a01b031681565b6040516001600160a01b0390911681526020016100ff565b34801561019357600080fd5b506101a76101a23660046105c2565b610304565b6040516100ff959493929190610619565b3480156101c457600080fd5b506101ce60035481565b6040519081526020016100ff565b3480156101e857600080fd5b506100c16101f73660046106ad565b6103cb565b34801561020857600080fd5b506101ce60015481565b34801561021e57600080fd5b506101ce60045481565b6100c1610456565b34801561023c57600080fd5b506100c161024b3660046105c2565b6104ac565b6000546001600160a01b0316331461026757600080fd5b60008181526005602052604090206002810154600160a01b900460ff161561028e57600080fd5b600260035461029d9190610778565b8160030154116102ac57600080fd5b600281015460018201546040516001600160a01b039092169181156108fc0291906000818181858888f193505050501580156102ec573d6000803e3d6000fd5b50600201805460ff60a01b1916600160a01b17905550565b60056020526000908152604090208054819061031f9061079a565b80601f016020809104026020016040519081016040528092919081815260200182805461034b9061079a565b80156103985780601f1061036d57610100808354040283529160200191610398565b820191906000526020600020905b81548152906001019060200180831161037b57829003601f168201915b5050505060018301546002840154600390940154929390926001600160a01b0382169250600160a01b90910460ff169085565b6000546001600160a01b031633146103e257600080fd5b600480546000916005918391826103f8836107d5565b909155508152602080820192909252604001600020855190925061042191839190870190610529565b5060018101929092556002820180546001600160a81b0319166001600160a01b03909216919091179055600060039091015550565b60015434101561046557600080fd5b3360009081526002602052604090205460ff166104aa57336000908152600260205260408120805460ff1916600117905560038054916104a4836107d5565b91905055505b565b3360009081526002602052604090205460ff166104c857600080fd5b6000818152600560209081526040808320338452600481019092529091205460ff16156104f457600080fd5b3360009081526004820160205260408120805460ff1916600117905560038201805491610520836107d5565b91905055505050565b8280546105359061079a565b90600052602060002090601f016020900481019282610557576000855561059d565b82601f1061057057805160ff191683800117855561059d565b8280016001018555821561059d579182015b8281111561059d578251825591602001919060010190610582565b506105a99291506105ad565b5090565b5b808211156105a957600081556001016105ae565b6000602082840312156105d457600080fd5b5035919050565b80356001600160a01b03811681146105f257600080fd5b919050565b60006020828403121561060957600080fd5b610612826105db565b9392505050565b60a08152600086518060a084015260005b81811015610647576020818a0181015160c086840101520161062a565b8181111561065957600060c083860101525b5060208301879052601f01601f1916820160c001905061068460408301866001600160a01b03169052565b9215156060820152608001529392505050565b634e487b7160e01b600052604160045260246000fd5b6000806000606084860312156106c257600080fd5b833567ffffffffffffffff808211156106da57600080fd5b818601915086601f8301126106ee57600080fd5b81358181111561070057610700610697565b604051601f8201601f19908116603f0116810190838211818310171561072857610728610697565b8160405282815289602084870101111561074157600080fd5b8260208601602083013760006020848301015280975050505050506020840135915061076f604085016105db565b90509250925092565b60008261079557634e487b7160e01b600052601260045260246000fd5b500490565b600181811c908216806107ae57607f821691505b602082108114156107cf57634e487b7160e01b600052602260045260246000fd5b50919050565b60006000198214156107f757634e487b7160e01b600052601160045260246000fd5b506001019056fea2646970667358221220f6cd562e5aaf3770e45e7ac5110e6f1a0cec4246e75a54c8fac953ada2dfafa164736f6c63430008090033","opcodes":"PUSH1 0x80 PUSH1 0x40 MSTORE CALLVALUE DUP1 ISZERO PUSH2 0x10 JUMPI PUSH1 0x0 DUP1 REVERT JUMPDEST POP PUSH1 0x40 MLOAD PUSH2 0x8D7 CODESIZE SUB DUP1 PUSH2 0x8D7 DUP4 CODECOPY DUP2 ADD PUSH1 0x40 DUP2 SWAP1 MSTORE PUSH2 0x2F SWAP2 PUSH2 0x57 JUMP JUMPDEST PUSH1 0x0 DUP1 SLOAD PUSH1 0x1 PUSH1 0x1 PUSH1 0xA0 SHL SUB NOT AND PUSH1 0x1 PUSH1 0x1 PUSH1 0xA0 SHL SUB SWAP3 SWAP1 SWAP3 AND SWAP2 SWAP1 SWAP2 OR SWAP1 SSTORE PUSH1 0x1 SSTORE PUSH2 0x94 JUMP JUMPDEST PUSH1 0x0 DUP1 PUSH1 0x40 DUP4 DUP6 SUB SLT ISZERO PUSH2 0x6A JUMPI PUSH1 0x0 DUP1 REVERT JUMPDEST DUP3 MLOAD PUSH1 0x20 DUP5 ADD MLOAD SWAP1 SWAP3 POP PUSH1 0x1 PUSH1 0x1 PUSH1 0xA0 SHL SUB DUP2 AND DUP2 EQ PUSH2 0x89 JUMPI PUSH1 0x0 DUP1 REVERT JUMPDEST DUP1 SWAP2 POP POP SWAP3 POP SWAP3 SWAP1 POP JUMP JUMPDEST PUSH2 0x834 DUP1 PUSH2 0xA3 PUSH1 0x0 CODECOPY PUSH1 0x0 RETURN INVALID PUSH1 0x80 PUSH1 0x40 MSTORE PUSH1 0x4 CALLDATASIZE LT PUSH2 0x9C JUMPI PUSH1 0x0 CALLDATALOAD PUSH1 0xE0 SHR DUP1 PUSH4 0x82FDE093 GT PUSH2 0x64 JUMPI DUP1 PUSH4 0x82FDE093 EQ PUSH2 0x1B8 JUMPI DUP1 PUSH4 0x8A9CFD55 EQ PUSH2 0x1DC JUMPI DUP1 PUSH4 0x937E09B1 EQ PUSH2 0x1FC JUMPI DUP1 PUSH4 0x9FB42B1F EQ PUSH2 0x212 JUMPI DUP1 PUSH4 0xD7BB99BA EQ PUSH2 0x228 JUMPI DUP1 PUSH4 0xD7D1BBDB EQ PUSH2 0x230 JUMPI PUSH1 0x0 DUP1 REVERT JUMPDEST DUP1 PUSH4 0x3441006 EQ PUSH2 0xA1 JUMPI DUP1 PUSH4 0xA144391 EQ PUSH2 0xC3 JUMPI DUP1 PUSH4 0x4051DDAC EQ PUSH2 0x108 JUMPI DUP1 PUSH4 0x481C6A75 EQ PUSH2 0x14F JUMPI DUP1 PUSH4 0x81D12C58 EQ PUSH2 0x187 JUMPI JUMPDEST PUSH1 0x0 DUP1 REVERT JUMPDEST CALLVALUE DUP1 ISZERO PUSH2 0xAD JUMPI PUSH1 0x0 DUP1 REVERT JUMPDEST POP PUSH2 0xC1 PUSH2 0xBC CALLDATASIZE PUSH1 0x4 PUSH2 0x5C2 JUMP JUMPDEST PUSH2 0x250 JUMP JUMPDEST STOP JUMPDEST CALLVALUE DUP1 ISZERO PUSH2 0xCF JUMPI PUSH1 0x0 DUP1 REVERT JUMPDEST POP PUSH2 0xF3 PUSH2 0xDE CALLDATASIZE PUSH1 0x4 PUSH2 0x5F7 JUMP JUMPDEST PUSH1 0x2 PUSH1 0x20 MSTORE PUSH1 0x0 SWAP1 DUP2 MSTORE PUSH1 0x40 SWAP1 KECCAK256 SLOAD PUSH1 0xFF AND DUP2 JUMP JUMPDEST PUSH1 0x40 MLOAD SWAP1 ISZERO ISZERO DUP2 MSTORE PUSH1 0x20 ADD JUMPDEST PUSH1 0x40 MLOAD DUP1 SWAP2 SUB SWAP1 RETURN JUMPDEST CALLVALUE DUP1 ISZERO PUSH2 0x114 JUMPI PUSH1 0x0 DUP1 REVERT JUMPDEST POP PUSH1 0x1 SLOAD PUSH1 0x4 SLOAD PUSH1 0x3 SLOAD PUSH1 0x0 SLOAD PUSH1 0x40 DUP1 MLOAD SWAP5 DUP6 MSTORE SELFBALANCE PUSH1 0x20 DUP7 ADD MSTORE DUP5 ADD SWAP3 SWAP1 SWAP3 MSTORE PUSH1 0x60 DUP4 ADD MSTORE PUSH1 0x1 PUSH1 0x1 PUSH1 0xA0 SHL SUB AND PUSH1 0x80 DUP3 ADD MSTORE PUSH1 0xA0 ADD PUSH2 0xFF JUMP JUMPDEST CALLVALUE DUP1 ISZERO PUSH2 0x15B JUMPI PUSH1 0x0 DUP1 REVERT JUMPDEST POP PUSH1 0x0 SLOAD PUSH2 0x16F SWAP1 PUSH1 0x1 PUSH1 0x1 PUSH1 0xA0 SHL SUB AND DUP2 JUMP JUMPDEST PUSH1 0x40 MLOAD PUSH1 0x1 PUSH1 0x1 PUSH1 0xA0 SHL SUB SWAP1 SWAP2 AND DUP2 MSTORE PUSH1 0x20 ADD PUSH2 0xFF JUMP JUMPDEST CALLVALUE DUP1 ISZERO PUSH2 0x193 JUMPI PUSH1 0x0 DUP1 REVERT JUMPDEST POP PUSH2 0x1A7 PUSH2 0x1A2 CALLDATASIZE PUSH1 0x4 PUSH2 0x5C2 JUMP JUMPDEST PUSH2 0x304 JUMP JUMPDEST PUSH1 0x40 MLOAD PUSH2 0xFF SWAP6 SWAP5 SWAP4 SWAP3 SWAP2 SWAP1 PUSH2 0x619 JUMP JUMPDEST CALLVALUE DUP1 ISZERO PUSH2 0x1C4 JUMPI PUSH1 0x0 DUP1 REVERT JUMPDEST POP PUSH2 0x1CE PUSH1 0x3 SLOAD DUP2 JUMP JUMPDEST PUSH1 0x40 MLOAD SWAP1 DUP2 MSTORE PUSH1 0x20 ADD PUSH2 0xFF JUMP JUMPDEST CALLVALUE DUP1 ISZERO PUSH2 0x1E8 JUMPI PUSH1 0x0 DUP1 REVERT JUMPDEST POP PUSH2 0xC1 PUSH2 0x1F7 CALLDATASIZE PUSH1 0x4 PUSH2 0x6AD JUMP JUMPDEST PUSH2 0x3CB JUMP JUMPDEST CALLVALUE DUP1 ISZERO PUSH2 0x208 JUMPI PUSH1 0x0 DUP1 REVERT JUMPDEST POP PUSH2 0x1CE PUSH1 0x1 SLOAD DUP2 JUMP JUMPDEST CALLVALUE DUP1 ISZERO PUSH2 0x21E JUMPI PUSH1 0x0 DUP1 REVERT JUMPDEST POP PUSH2 0x1CE PUSH1 0x4 SLOAD DUP2 JUMP JUMPDEST PUSH2 0xC1 PUSH2 0x456 JUMP JUMPDEST CALLVALUE DUP1 ISZERO PUSH2 0x23C JUMPI PUSH1 0x0 DUP1 REVERT JUMPDEST POP PUSH2 0xC1 PUSH2 0x24B CALLDATASIZE PUSH1 0x4 PUSH2 0x5C2 JUMP JUMPDEST PUSH2 0x4AC JUMP JUMPDEST PUSH1 0x0 SLOAD PUSH1 0x1 PUSH1 0x1 PUSH1 0xA0 SHL SUB AND CALLER EQ PUSH2 0x267 JUMPI PUSH1 0x0 DUP1 REVERT JUMPDEST PUSH1 0x0 DUP2 DUP2 MSTORE PUSH1 0x5 PUSH1 0x20 MSTORE PUSH1 0x40 SWAP1 KECCAK256 PUSH1 0x2 DUP2 ADD SLOAD PUSH1 0x1 PUSH1 0xA0 SHL SWAP1 DIV PUSH1 0xFF AND ISZERO PUSH2 0x28E JUMPI PUSH1 0x0 DUP1 REVERT JUMPDEST PUSH1 0x2 PUSH1 0x3 SLOAD PUSH2 0x29D SWAP2 SWAP1 PUSH2 0x778 JUMP JUMPDEST DUP2 PUSH1 0x3 ADD SLOAD GT PUSH2 0x2AC JUMPI PUSH1 0x0 DUP1 REVERT JUMPDEST PUSH1 0x2 DUP2 ADD SLOAD PUSH1 0x1 DUP3 ADD SLOAD PUSH1 0x40 MLOAD PUSH1 0x1 PUSH1 0x1 PUSH1 0xA0 SHL SUB SWAP1 SWAP3 AND SWAP2 DUP2 ISZERO PUSH2 0x8FC MUL SWAP2 SWAP1 PUSH1 0x0 DUP2 DUP2 DUP2 DUP6 DUP9 DUP9 CALL SWAP4 POP POP POP POP ISZERO DUP1 ISZERO PUSH2 0x2EC JUMPI RETURNDATASIZE PUSH1 0x0 DUP1 RETURNDATACOPY RETURNDATASIZE PUSH1 0x0 REVERT JUMPDEST POP PUSH1 0x2 ADD DUP1 SLOAD PUSH1 0xFF PUSH1 0xA0 SHL NOT AND PUSH1 0x1 PUSH1 0xA0 SHL OR SWAP1 SSTORE POP JUMP JUMPDEST PUSH1 0x5 PUSH1 0x20 MSTORE PUSH1 0x0 SWAP1 DUP2 MSTORE PUSH1 0x40 SWAP1 KECCAK256 DUP1 SLOAD DUP2 SWAP1 PUSH2 0x31F SWAP1 PUSH2 0x79A JUMP JUMPDEST DUP1 PUSH1 0x1F ADD PUSH1 0x20 DUP1 SWAP2 DIV MUL PUSH1 0x20 ADD PUSH1 0x40 MLOAD SWAP1 DUP2 ADD PUSH1 0x40 MSTORE DUP1 SWAP3 SWAP2 SWAP1 DUP2 DUP2 MSTORE PUSH1 0x20 ADD DUP3 DUP1 SLOAD PUSH2 0x34B SWAP1 PUSH2 0x79A JUMP JUMPDEST DUP1 ISZERO PUSH2 0x398 JUMPI DUP1 PUSH1 0x1F LT PUSH2 0x36D JUMPI PUSH2 0x100 DUP1 DUP4 SLOAD DIV MUL DUP4 MSTORE SWAP2 PUSH1 0x20 ADD SWAP2 PUSH2 0x398 JUMP JUMPDEST DUP3 ADD SWAP2 SWAP1 PUSH1 0x0 MSTORE PUSH1 0x20 PUSH1 0x0 KECCAK256 SWAP1 JUMPDEST DUP2 SLOAD DUP2 MSTORE SWAP1 PUSH1 0x1 ADD SWAP1 PUSH1 0x20 ADD DUP1 DUP4 GT PUSH2 0x37B JUMPI DUP3 SWAP1 SUB PUSH1 0x1F AND DUP3 ADD SWAP2 JUMPDEST POP POP POP POP PUSH1 0x1 DUP4 ADD SLOAD PUSH1 0x2 DUP5 ADD SLOAD PUSH1 0x3 SWAP1 SWAP5 ADD SLOAD SWAP3 SWAP4 SWAP1 SWAP3 PUSH1 0x1 PUSH1 0x1 PUSH1 0xA0 SHL SUB DUP3 AND SWAP3 POP PUSH1 0x1 PUSH1 0xA0 SHL SWAP1 SWAP2 DIV PUSH1 0xFF AND SWAP1 DUP6 JUMP JUMPDEST PUSH1 0x0 SLOAD PUSH1 0x1 PUSH1 0x1 PUSH1 0xA0 SHL SUB AND CALLER EQ PUSH2 0x3E2 JUMPI PUSH1 0x0 DUP1 REVERT JUMPDEST PUSH1 0x4 DUP1 SLOAD PUSH1 0x0 SWAP2 PUSH1 0x5 SWAP2 DUP4 SWAP2 DUP3 PUSH2 0x3F8 DUP4 PUSH2 0x7D5 JUMP JUMPDEST SWAP1 SWAP2 SSTORE POP DUP2 MSTORE PUSH1 0x20 DUP1 DUP3 ADD SWAP3 SWAP1 SWAP3 MSTORE PUSH1 0x40 ADD PUSH1 0x0 KECCAK256 DUP6 MLOAD SWAP1 SWAP3 POP PUSH2 0x421 SWAP2 DUP4 SWAP2 SWAP1 DUP8 ADD SWAP1 PUSH2 0x529 JUMP JUMPDEST POP PUSH1 0x1 DUP2 ADD SWAP3 SWAP1 SWAP3 SSTORE PUSH1 0x2 DUP3 ADD DUP1 SLOAD PUSH1 0x1 PUSH1 0x1 PUSH1 0xA8 SHL SUB NOT AND PUSH1 0x1 PUSH1 0x1 PUSH1 0xA0 SHL SUB SWAP1 SWAP3 AND SWAP2 SWAP1 SWAP2 OR SWAP1 SSTORE PUSH1 0x0 PUSH1 0x3 SWAP1 SWAP2 ADD SSTORE POP JUMP JUMPDEST PUSH1 0x1 SLOAD CALLVALUE LT ISZERO PUSH2 0x465 JUMPI PUSH1 0x0 DUP1 REVERT JUMPDEST CALLER PUSH1 0x0 SWAP1 DUP2 MSTORE PUSH1 0x2 PUSH1 0x20 MSTORE PUSH1 0x40 SWAP1 KECCAK256 SLOAD PUSH1 0xFF AND PUSH2 0x4AA JUMPI CALLER PUSH1 0x0 SWAP1 DUP2 MSTORE PUSH1 0x2 PUSH1 0x20 MSTORE PUSH1 0x40 DUP2 KECCAK256 DUP1 SLOAD PUSH1 0xFF NOT AND PUSH1 0x1 OR SWAP1 SSTORE PUSH1 0x3 DUP1 SLOAD SWAP2 PUSH2 0x4A4 DUP4 PUSH2 0x7D5 JUMP JUMPDEST SWAP2 SWAP1 POP SSTORE POP JUMPDEST JUMP JUMPDEST CALLER PUSH1 0x0 SWAP1 DUP2 MSTORE PUSH1 0x2 PUSH1 0x20 MSTORE PUSH1 0x40 SWAP1 KECCAK256 SLOAD PUSH1 0xFF AND PUSH2 0x4C8 JUMPI PUSH1 0x0 DUP1 REVERT JUMPDEST PUSH1 0x0 DUP2 DUP2 MSTORE PUSH1 0x5 PUSH1 0x20 SWAP1 DUP2 MSTORE PUSH1 0x40 DUP1 DUP4 KECCAK256 CALLER DUP5 MSTORE PUSH1 0x4 DUP2 ADD SWAP1 SWAP3 MSTORE SWAP1 SWAP2 KECCAK256 SLOAD PUSH1 0xFF AND ISZERO PUSH2 0x4F4 JUMPI PUSH1 0x0 DUP1 REVERT JUMPDEST CALLER PUSH1 0x0 SWAP1 DUP2 MSTORE PUSH1 0x4 DUP3 ADD PUSH1 0x20 MSTORE PUSH1 0x40 DUP2 KECCAK256 DUP1 SLOAD PUSH1 0xFF NOT AND PUSH1 0x1 OR SWAP1 SSTORE PUSH1 0x3 DUP3 ADD DUP1 SLOAD SWAP2 PUSH2 0x520 DUP4 PUSH2 0x7D5 JUMP JUMPDEST SWAP2 SWAP1 POP SSTORE POP POP POP JUMP JUMPDEST DUP3 DUP1 SLOAD PUSH2 0x535 SWAP1 PUSH2 0x79A JUMP JUMPDEST SWAP1 PUSH1 0x0 MSTORE PUSH1 0x20 PUSH1 0x0 KECCAK256 SWAP1 PUSH1 0x1F ADD PUSH1 0x20 SWAP1 DIV DUP2 ADD SWAP3 DUP3 PUSH2 0x557 JUMPI PUSH1 0x0 DUP6 SSTORE PUSH2 0x59D JUMP JUMPDEST DUP3 PUSH1 0x1F LT PUSH2 0x570 JUMPI DUP1 MLOAD PUSH1 0xFF NOT AND DUP4 DUP1 ADD OR DUP6 SSTORE PUSH2 0x59D JUMP JUMPDEST DUP3 DUP1 ADD PUSH1 0x1 ADD DUP6 SSTORE DUP3 ISZERO PUSH2 0x59D JUMPI SWAP2 DUP3 ADD JUMPDEST DUP3 DUP2 GT ISZERO PUSH2 0x59D JUMPI DUP3 MLOAD DUP3 SSTORE SWAP2 PUSH1 0x20 ADD SWAP2 SWAP1 PUSH1 0x1 ADD SWAP1 PUSH2 0x582 JUMP JUMPDEST POP PUSH2 0x5A9 SWAP3 SWAP2 POP PUSH2 0x5AD JUMP JUMPDEST POP SWAP1 JUMP JUMPDEST JUMPDEST DUP1 DUP3 GT ISZERO PUSH2 0x5A9 JUMPI PUSH1 0x0 DUP2 SSTORE PUSH1 0x1 ADD PUSH2 0x5AE JUMP JUMPDEST PUSH1 0x0 PUSH1 0x20 DUP3 DUP5 SUB SLT ISZERO PUSH2 0x5D4 JUMPI PUSH1 0x0 DUP1 REVERT JUMPDEST POP CALLDATALOAD SWAP2 SWAP1 POP JUMP JUMPDEST DUP1 CALLDATALOAD PUSH1 0x1 PUSH1 0x1 PUSH1 0xA0 SHL SUB DUP2 AND DUP2 EQ PUSH2 0x5F2 JUMPI PUSH1 0x0 DUP1 REVERT JUMPDEST SWAP2 SWAP1 POP JUMP JUMPDEST PUSH1 0x0 PUSH1 0x20 DUP3 DUP5 SUB SLT ISZERO PUSH2 0x609 JUMPI PUSH1 0x0 DUP1 REVERT JUMPDEST PUSH2 0x612 DUP3 PUSH2 0x5DB JUMP JUMPDEST SWAP4 SWAP3 POP POP POP JUMP JUMPDEST PUSH1 0xA0 DUP2 MSTORE PUSH1 0x0 DUP7 MLOAD DUP1 PUSH1 0xA0 DUP5 ADD MSTORE PUSH1 0x0 JUMPDEST DUP2 DUP2 LT ISZERO PUSH2 0x647 JUMPI PUSH1 0x20 DUP2 DUP11 ADD DUP2 ADD MLOAD PUSH1 0xC0 DUP7 DUP5 ADD ADD MSTORE ADD PUSH2 0x62A JUMP JUMPDEST DUP2 DUP2 GT ISZERO PUSH2 0x659 JUMPI PUSH1 0x0 PUSH1 0xC0 DUP4 DUP7 ADD ADD MSTORE JUMPDEST POP PUSH1 0x20 DUP4 ADD DUP8 SWAP1 MSTORE PUSH1 0x1F ADD PUSH1 0x1F NOT AND DUP3 ADD PUSH1 0xC0 ADD SWAP1 POP PUSH2 0x684 PUSH1 0x40 DUP4 ADD DUP7 PUSH1 0x1 PUSH1 0x1 PUSH1 0xA0 SHL SUB AND SWAP1 MSTORE JUMP JUMPDEST SWAP3 ISZERO ISZERO PUSH1 0x60 DUP3 ADD MSTORE PUSH1 0x80 ADD MSTORE SWAP4 SWAP3 POP POP POP JUMP JUMPDEST PUSH4 0x4E487B71 PUSH1 0xE0 SHL PUSH1 0x0 MSTORE PUSH1 0x41 PUSH1 0x4 MSTORE PUSH1 0x24 PUSH1 0x0 REVERT JUMPDEST PUSH1 0x0 DUP1 PUSH1 0x0 PUSH1 0x60 DUP5 DUP7 SUB SLT ISZERO PUSH2 0x6C2 JUMPI PUSH1 0x0 DUP1 REVERT JUMPDEST DUP4 CALLDATALOAD PUSH8 0xFFFFFFFFFFFFFFFF DUP1 DUP3 GT ISZERO PUSH2 0x6DA JUMPI PUSH1 0x0 DUP1 REVERT JUMPDEST DUP2 DUP7 ADD SWAP2 POP DUP7 PUSH1 0x1F DUP4 ADD SLT PUSH2 0x6EE JUMPI PUSH1 0x0 DUP1 REVERT JUMPDEST DUP2 CALLDATALOAD DUP2 DUP2 GT ISZERO PUSH2 0x700 JUMPI PUSH2 0x700 PUSH2 0x697 JUMP JUMPDEST PUSH1 0x40 MLOAD PUSH1 0x1F DUP3 ADD PUSH1 0x1F NOT SWAP1 DUP2 AND PUSH1 0x3F ADD AND DUP2 ADD SWAP1 DUP4 DUP3 GT DUP2 DUP4 LT OR ISZERO PUSH2 0x728 JUMPI PUSH2 0x728 PUSH2 0x697 JUMP JUMPDEST DUP2 PUSH1 0x40 MSTORE DUP3 DUP2 MSTORE DUP10 PUSH1 0x20 DUP5 DUP8 ADD ADD GT ISZERO PUSH2 0x741 JUMPI PUSH1 0x0 DUP1 REVERT JUMPDEST DUP3 PUSH1 0x20 DUP7 ADD PUSH1 0x20 DUP4 ADD CALLDATACOPY PUSH1 0x0 PUSH1 0x20 DUP5 DUP4 ADD ADD MSTORE DUP1 SWAP8 POP POP POP POP POP POP PUSH1 0x20 DUP5 ADD CALLDATALOAD SWAP2 POP PUSH2 0x76F PUSH1 0x40 DUP6 ADD PUSH2 0x5DB JUMP JUMPDEST SWAP1 POP SWAP3 POP SWAP3 POP SWAP3 JUMP JUMPDEST PUSH1 0x0 DUP3 PUSH2 0x795 JUMPI PUSH4 0x4E487B71 PUSH1 0xE0 SHL PUSH1 0x0 MSTORE PUSH1 0x12 PUSH1 0x4 MSTORE PUSH1 0x24 PUSH1 0x0 REVERT JUMPDEST POP DIV SWAP1 JUMP JUMPDEST PUSH1 0x1 DUP2 DUP2 SHR SWAP1 DUP3 AND DUP1 PUSH2 0x7AE JUMPI PUSH1 0x7F DUP3 AND SWAP2 POP JUMPDEST PUSH1 0x20 DUP3 LT DUP2 EQ ISZERO PUSH2 0x7CF JUMPI PUSH4 0x4E487B71 PUSH1 0xE0 SHL PUSH1 0x0 MSTORE PUSH1 0x22 PUSH1 0x4 MSTORE PUSH1 0x24 PUSH1 0x0 REVERT JUMPDEST POP SWAP2 SWAP1 POP JUMP JUMPDEST PUSH1 0x0 PUSH1 0x0 NOT DUP3 EQ ISZERO PUSH2 0x7F7 JUMPI PUSH4 0x4E487B71 PUSH1 0xE0 SHL PUSH1 0x0 MSTORE PUSH1 0x11 PUSH1 0x4 MSTORE PUSH1 0x24 PUSH1 0x0 REVERT JUMPDEST POP PUSH1 0x1 ADD SWAP1 JUMP INVALID LOG2 PUSH5 0x6970667358 0x22 SLT KECCAK256 0xF6 0xCD JUMP 0x2E GAS 0xAF CALLDATACOPY PUSH17 0xE45E7AC5110E6F1A0CEC4246E75A54C8FA 0xC9 MSTORE8 0xAD LOG2 0xDF 0xAF LOG1 PUSH5 0x736F6C6343 STOP ADDMOD MULMOD STOP CALLER "},"gasEstimates":{"creation":{"codeDepositCost":"420000","executionCost":"infinite","totalCost":"infinite"},"external":{"approveRequest(uint256)":"53394","approvers(address)":"2543","approversCount()":"2295","contribute()":"53105","createRequest(string,uint256,address)":"infinite","finalizeRequest(uint256)":"infinite","getSummary()":"8726","manager()":"2404","minimumContribution()":"2339","numRequests()":"2361","requests(uint256)":"infinite"}},"methodIdentifiers":{"approveRequest(uint256)":"d7d1bbdb","approvers(address)":"0a144391","approversCount()":"82fde093","contribute()":"d7bb99ba","createRequest(string,uint256,address)":"8a9cfd55","finalizeRequest(uint256)":"03441006","getSummary()":"4051ddac","manager()":"481c6a75","minimumContribution()":"937e09b1","numRequests()":"9fb42b1f","requests(uint256)":"81d12c58"}},"storageLayout":{"storage":[{"astId":57,"contract":"Campaign.sol:Campaign","label":"manager","offset":0,"slot":"0","type":"t_address"},{"astId":59,"contract":"Campaign.sol:Campaign","label":"minimumContribution","offset":0,"slot":"1","type":"t_uint256"},{"astId":63,"contract":"Campaign.sol:Campaign","label":"approvers","offset":0,"slot":"2","type":"t_mapping(t_address,t_bool)"},{"astId":65,"contract":"Campaign.sol:Campaign","label":"approversCount","offset":0,"slot":"3","type":"t_uint256"},{"astId":67,"contract":"Campaign.sol:Campaign","label":"numRequests","offset":0,"slot":"4","type":"t_uint256"},{"astId":72,"contract":"Campaign.sol:Campaign","label":"requests","offset":0,"slot":"5","type":"t_mapping(t_uint256,t_struct(Request)55_storage)"}],"types":{"t_address":{"encoding":"inplace","label":"address","numberOfBytes":"20"},"t_bool":{"encoding":"inplace","label":"bool","numberOfBytes":"1"},"t_mapping(t_address,t_bool)":{"encoding":"mapping","key":"t_address","label":"mapping(address => bool)","numberOfBytes":"32","value":"t_bool"},"t_mapping(t_uint256,t_struct(Request)55_storage)":{"encoding":"mapping","key":"t_uint256","label":"mapping(uint256 => struct Campaign.Request)","numberOfBytes":"32","value":"t_struct(Request)55_storage"},"t_string_storage":{"encoding":"bytes","label":"string","numberOfBytes":"32"},"t_struct(Request)55_storage":{"encoding":"inplace","label":"struct Campaign.Request","members":[{"astId":42,"contract":"Campaign.sol:Campaign","label":"description","offset":0,"slot":"0","type":"t_string_storage"},{"astId":44,"contract":"Campaign.sol:Campaign","label":"value","offset":0,"slot":"1","type":"t_uint256"},{"astId":46,"contract":"Campaign.sol:Campaign","label":"recipient","offset":0,"slot":"2","type":"t_address"},{"astId":48,"contract":"Campaign.sol:Campaign","label":"complete","offset":20,"slot":"2","type":"t_bool"},{"astId":50,"contract":"Campaign.sol:Campaign","label":"approvalCount","offset":0,"slot":"3","type":"t_uint256"},{"astId":54,"contract":"Campaign.sol:Campaign","label":"approvals","offset":0,"slot":"4","type":"t_mapping(t_address,t_bool)"}],"numberOfBytes":"160"},"t_uint256":{"encoding":"inplace","label":"uint256","numberOfBytes":"32"}}},"userdoc":{"kind":"user","methods":{},"version":1}}